:08055200C291D2927F017E00EC
:10055A00E4FDFCC3ED9FEC9E5015E4FBFA0BBB00D7
:0F056A00010ABA04F8BBFBF50DBD00010C80E4DB
:01057900225F
:10059800D287C290D291308709C292120556D29260
:0305A80080F422BA
:10051700AE10AF117C007D0A1204258D19743025A9
:1005270019F519AE10AF117C007D0A1204258F183A
:0C05370074302518F518FF1205087F0627
:0F054300A9071205988980C290120552C2922210
:1004B000AE10AF117C007D0A1204258C128D13AE94
:1004C00010AF117C007D641204258C148D15C3E5DA
:1004D000159513F515E5149512F514FEAF157C006E
:1004E0007D0A1204258E148F15AE10AF117C007D8D
:1004F000641204258E168F17EF2430F518FF1205AD
:0805000008E5152430F518FF91
:0F050800A9071205988980D290120552C292223B
:10000300E4F508F509D2937F3012053E7F300203F1
:10001300F27580FF120556C29312055A85801AD2D3
:10002300937580FFE51AF460E87F147E0012055A89
:10003300C29385801AD2937580FFE51A647F707B23
:100043007F801205437F011205430509E50970020C
:100053000508C3940AE5086480948050137518302A
:10006300E5092430F519AF1812053EAF190203F262
:10007300D3E5099463E50864809480400FE4F508B0
:10008300F509751830751930AF188027AE08AF0918
:100093007C007D0A1204258D1974302519F519AEDB
:1000A30008AF097C007D0A1204258F1874302518C7
:1000B300F518FF12053EAF190203F2E51A64BF708B
:1000C3007A7F801205437F01120543E50915097004
:1000D300021508C3E50864809480501675080075FE
:1000E3000963751839751939AF1812053EAF19022E
:1000F30003F2C3E509940AE50864809480500D7502
:100103001830E5092430F519AF188027AE08AF0978
:100113007C007D0A1204258D1974302519F519AE5A
:1001230008AF097C007D0A1204258F187430251846
:10013300F518FF12053EAF190203F2E51AB4DF1EEC
:100143007F801205437F011205437F2D1205088529
:10015300080A85090B750E00750F04020014E51AD1
:10016300B4EF1E7F801205437F011205437F2F12D8
:10017300050885080A85090B750E00750F03020033
:1001830014E51AB4F7117F801205437F011205436A
:10019300D295C29502000AE51AB4FB1E7F801205B0
:1001A300437F011205437F2A120508750E00750F60
:1001B3000285080A85090B020014E51AB4FD1E7FA7
:1001C300801205437F011205437F2B120508850822
:1001D3000A85090B750E00750F01020014E51A64F8
:1001E300FE60030200147F801205437F0112054362
:1001F30085080C85090DE50F6401450E705EE50B5E
:10020300250DF511E50A350CF510C3E511940AE542
:1002130010648094805013751830E5112430F5195B
:10022300AF1812053EAF190203F2C3E5119464E55A
:1002330010648094805008120517AF190203F2C3AB
:10024300E51194E8E51064809483400302001412DE
:1002530004B0E5132430F518FF0203F2E50F64023E
:10026300450E600302034CAC0CAD0DAE0AAF0B128E
:1002730004138E108F11C3E511940AE51064809462
:10028300805012751830EF2430F519AF1812053E5F
:10029300AF190203F2C3E5119464E51064809480FE
:1002A3005008120517AF190203F2C3E51194E8E5EC
:1002B3001064809483500D1204B0E5132430F518B4
:1002C300FF0203F2C3E5119410E510648094A74084
:1002D30003020014AE10AF117C007D0A1204258CBA
:1002E300128D13AE10AF117C007D641204258C14A3
:1002F3008D15C3E5159513F515E5149512F514FE43
:10030300AF157C007D0A1204258E148F15AE10AF35
:10031300117C007D641204258E108F117C007D0AF0
:100323001204258C168D17AE10AF117C007D0A12B6
:1003330004258F828E83EF120503E5171204F9E576
:10034300132430F518FF0203F2E50F6403450E7022
:1003530045AC0CAD0DAE0AAF0B1204258E108F11F8
:10036300C3E511940AE51064809480501275183027
:10037300EF2430F519AF1812053EAF190203F2C38B
:10038300E5119464E5106480948040030200141224
:100393000517AF198059E50F6404450E6003020089
:1003A30014C3E50B950DF511E50A950CF510C3641F
:1003B300809480501DAE10AF117CFF7DFF1204139B
:1003C3008E108F11EF2430F5187F2D12053EAF18D4
:1003D300801DC3E511940AE510648094805016755E
:1003E3001830E5112430F519AF1812053EAF191274
:1003F3000508020014C3E5119464E5106480948039
:100403004003020014120517AF1912050802001465
:10057A00C2957F381205437F081205437F01120591
:0E058A00437F061205437F0C12054302000357
:030000000205AB4B
:0C05AB00787FE4F6D8FD75811A02057A0D
:10041300EF8DF0A4A8F0CF8CF0A428CE8DF0A42EFD
:02042300FE22B7
:10042500C2D5EC30E709B2D5E4C39DFDE49CFCEEF2
:1004350030E715B2D5E4C39FFFE49EFE12045BC30B
:10044500E49DFDE49CFC800312045B30D507C3E406
:060455009FFFE49EFE2261
:10045B00BC000BBE0029EF8DF084FFADF022E4CC85
:10046B00F875F008EF2FFFEE33FEEC33FCEE9DEC4E
:10047B00984005FCEE9DFE0FD5F0E9E4CEFD22ED94
:10048B00F8F5F0EE8420D21CFEADF075F008EF2FDE
:10049B00FFED33FD4007985006D5F0F222C398FDCF
:0504AB000FD5F0EA226C
:00000001FF
