:10059200E4FFFE758901E4F58CF58AD28C308DFD7D
:0F05A200C28CC28D0FBF00010EEF64084E70E4D3
:0105B1002227
:1002D100E4F50AF50BD293C3E50A64809480503AA1
:1002E100750A00750B63AE0AAF0B7C007D0A120420
:1002F100E38D0D7430250DF50DAE0AAF0B7C007D3D
:100301000A1204E38F0C7430250CF50CFF1205CA98
:100311007F061205B2AF0D1205CAD3E50B9463E552
:100321000A64809480401DE4F50AF50B750C30E5F4
:100331000B2430F50DAF0C1205CA7F061205B2AFC2
:100341000D1205CAC3E50B940AE50A648094805036
:100351000280547580FF7F017E00120572C2937F77
:10036100017E0012057285800ED2937580FFE50E25
:10037100F460E07F0A7E00120572C29385800ED27E
:10038100937580FFE50E647F70717F801205B27FE7
:10039100011205B2050BE50B7002050AC3940AE5CB
:1003A1000A64809480500B750C30E50B2430F50DF8
:1003B1008076D3E50B9463E50A648094804013E46E
:1003C100F50AF50B750C30E50B2430F50DAF0C0279
:1003D100046EAE0AAF0B7C007D0A1204E38D0D742E
:1003E10030250DF50DAE0AAF0B7C007D0A1204E33A
:1003F1008F0C7430250CF50CFF8072E50E64BF7014
:100401007C7F801205B27F011205B2E50B150B70DE
:1004110002150AC3E50A648094805010750A0075BC
:100421000B63750C39750D39AF0C8041C3E50B9425
:100431000AE50A64809480500D750C30E50B243078
:10044100F50DAF0C8027AE0AAF0B7C007D0A1204BC
:10045100E38D0D7430250DF50DAE0AAF0B7C007DDB
:100461000A1204E38F0C7430250CF50CFF1205CA37
:100471007F061205B2AF0D1205CA020354E50EB490
:10048100DF02801AE50EB4EF028013E50EB4F70225
:10049100800CE50EB4FB028005E50EB4FD0D7F80F6
:1004A1001205B27F011205B20202D8E50E64FE60A8
:1004B100030203547F801205B27F011205B2D29567
:1004C10012056EC295E4F50AF50B750C30750D3009
:1004D100AF0C1205CA7F061205B2AF0D1205CA0292
:0204E1000354C2
:10000300C2957F381205B27F0C1205B27F0112052B
:10001300B27F061205B27F801205B2D296C2977FD5
:100023004B1205CA12056E7F181205B27F551205D1
:10003300CA12056E7F181205B27F4E1205CA120549
:100043006E7F181205B27F411205CA12056E7F1822
:100053001205B27F4C1205CA12056E7F181205B243
:100063007F201205CA12056E7F181205B27F561241
:1000730005CA12056E7F181205B27F491205CA120E
:10008300056E7F181205B27F531205CA12056E7FE3
:10009300181205B27F4F1205CA12056E7F1812059A
:1000A300B27F551205CA12056E7F181205B27F4C36
:1000B3001205CA12056E7F181205B27F491205CACE
:1000C30012056E7F181205B27F411205CA12056E22
:1000D3007F181205B27F1C1205B27F1C1205B27F76
:1000E3001C1205B27F1C1205B27F1C1205B27F1CC5
:1000F3001205B27F1C1205B27F1C1205B27F1C12BF
:1001030005B27F1C1205B27F1C1205B27F1C1205BB
:10011300B27F1C1205B27F1C1205B212056E7FC09E
:100123001205B27F4D1205CA12056E7F181205B271
:100133007F591205CA12056E7F181205B27F20126D
:1001430005CA12056E7F181205B27F461205CA1240
:10015300056E7F181205B27F491205CA12056E7F1C
:10016300181205B27F521205CA12056E7F181205C6
:10017300B27F531205CA12056E7F181205B27F545F
:100183001205CA12056E7F181205B27F201205CA26
:1001930012056E7F181205B27F4C1205CA12056E46
:1001A3007F181205B27F431205CA12056E7F18121B
:1001B30005B27F441205CA12056E7F181205B27F7D
:1001C300201205CA12056E7F181205B27F50120560
:1001D300CA12056E7F181205B27F521205CA1205A4
:1001E3006E7F181205B27F4F1205CA12056E7F1873
:1001F3001205B27F471205CA12056E7F181205B2A7
:100203007F521205CA12056E7F181205B27F411282
:1002130005CA12056E7F181205B27F4D1205CA1268
:10022300056E7F181205B27F1C1205B27F1C1205E2
:10023300B27F1C1205B27F1C1205B27F1C1205B2DD
:100243007F1C1205B27F1C1205B27F1C1205B27F00
:100253001C1205B27F1C1205B27F1C1205B27F1C53
:100263001205B27F1C1205B27F1C1205B27F1C124D
:1002730005B27F1C1205B27F1C1205B27F1C12054A
:0B028300B27F1C1205B27F1C1205B2F6
:10028E00C3E509940AE50894005018B296B2971285
:10029E000592B296B2971205920509E50970E1052D
:1002AE000880DDC2957F381205B27F081205B27F35
:1002BE00011205B27F061205B27F0C1205B21202B0
:0102CE00D15E
:0202CF0080BDF0
:1005B2008F0F1205E2850F80C290C291D2927F0105
:0805C2007E00120572C29222B4
:1005CA008F0F1205E2850F80D290C291D2927F01DD
:0805DA007E00120572C292229C
:1005E200D287C290D29130870DC2927F017E0012D3
:0705F2000572D29280F02295
:04056E007F147E0078
:10057200E4FDFCC3ED9FEC9E5015E4FBFA0BBB00BF
:0F058200010ABA04F8BBFBF50DBD00010C80E4C3
:010591002247
:030000000205F9FD
:0C05F900787FE4F6D8FD75810F02000346
:1004E300C2D5EC30E709B2D5E4C39DFDE49CFCEE34
:1004F30030E715B2D5E4C39FFFE49EFE120519C38E
:10050300E49DFDE49CFC800312051930D507C3E488
:060513009FFFE49EFE22A2
:10051900BC000BBE0029EF8DF084FFADF022E4CCC6
:10052900F875F008EF2FFFEE33FEEC33FCEE9DEC8F
:10053900984005FCEE9DFE0FD5F0E9E4CEFD22EDD5
:10054900F8F5F0EE8420D21CFEADF075F008EF2F1F
:10055900FFED33FD4007985006D5F0F222C398FD10
:050569000FD5F0EA22AD
:00000001FF
