:08025400C291D2927F017E00ED
:10025C00E4FDFCC3ED9FEC9E5015E4FBFA0BBB00D8
:0F026C00010ABA04F8BBFBF50DBD00010C80E4DC
:01027B002260
:1002C600D287C290D291308709C292120258D29236
:0302D60080F4228F
:0702B0007F801202B77F01FD
:0F02B700A9071202C68980C290120254C2922275
:0C027C00AF0A1202887F061202B7AF0B17
:0F028800A9071202C68980D290120254C2922294
:10000300E4F508F509D293C3E50864809480503081
:10001300750800750963AE08AF097C007D0A1201FB
:10002300C98D0B7430250BF50BAE08AF097C007D31
:100033000A1201C98F0A7430250AF50AFF12027EDB
:10004300D3E5099463E508648094804011E4F508DE
:10005300F509750A30E5092430F50B12027CC3E576
:1000630009940AE50864809480500280457580FFF6
:10007300120258C29312025C85800CD2937580FFE2
:10008300E50CF460E87F0A7E0012025CC29385806F
:100093000CD2937580FFE50C647F706A1202B00581
:1000A30009E50970020508C3940AE5086480948091
:1000B300500B750A30E5092430F50B806FD3E50941
:1000C3009463E508648094804013E4F508F50975AA
:1000D3000A30E5092430F50BAF0A020174AE08AF0C
:1000E300097C007D0A1201C98D0B7430250BF50BB9
:1000F300AE08AF097C007D0A1201C98F0A7430254E
:100103000AF50AFF806BE50C64BF706B1202B0E561
:1001130009150970021508C3E5086480948050101E
:10012300750800750963750A39750B39AF0A804183
:10013300C3E509940AE50864809480500D750A307C
:10014300E5092430F50BAF0A8027AE08AF097C0020
:100153007D0A1201C98D0B7430250BF50BAE08AF68
:10016300097C007D0A1201C98F0A7430250AF50A39
:10017300FF12027E020070E50CB4DF02801AE50C68
:10018300B4EF028013E50CB4F702800CE50CB4FB6A
:10019300028005E50CB4FD061202B002000AE50C6C
:1001A30064FE60030200701202B0D2957F147E00D9
:1001B30012025CC295E4F508F509750A30750B3037
:0601C30012027C02007034
:10029700C2957F381202B77F081202B27F06120298
:0902A700B77F0C1202B70200033C
:030000000202D920
:0C02D900787FE4F6D8FD75810C020297D6
:1001C900C2D5EC30E709B2D5E4C39DFDE49CFCEE51
:1001D90030E715B2D5E4C39FFFE49EFE1201FFC3C9
:1001E900E49DFDE49CFC80031201FF30D507C3E4C4
:0601F9009FFFE49EFE22C0
:1001FF00BC000BBE0029EF8DF084FFADF022E4CCE4
:10020F00F875F008EF2FFFEE33FEEC33FCEE9DECAC
:10021F00984005FCEE9DFE0FD5F0E9E4CEFD22EDF2
:10022F00F8F5F0EE8420D21CFEADF075F008EF2F3C
:10023F00FFED33FD4007985006D5F0F222C398FD2D
:05024F000FD5F0EA22CA
:00000001FF
