:08011300C291D2927F017E002F
:10011B00E4FDFCC3ED9FEC9E5015E4FBFA0BBB001A
:0F012B00010ABA04F8BBFBF50DBD00010C80E41E
:01013A0022A2
:10018000D287C290D291308709C292120117D292BF
:0301900080F422D6
:070154007F8012015B7F01B7
:0F015B00A9071201808980C290120113C292225B
:07016A007F451201717F4E79
:0F017100A9071201808980D290120113C2922235
:10000300D2937580FF120117C29312011B858008DA
:10001300D2937580FFE508F460E8D2957F147E00E3
:1000230012011BC295C293858008D2937580FFE5A8
:1000330008B47F0D1201547F551201717F500200E5
:10004300EFE508B4BF171201547F441201717F4FCB
:100053001201717F571201717F4E0200EFE508B460
:10006300DF171201547F4C1201717F491201717F16
:10007300531201717F540200EFE50864EF7014120C
:10008300015412016A7F541201717F451201717F7D
:10009300528059E50864F770201201547F5312010E
:1000A300717F541201717F411201717F54120171EA
:1000B3007F551201717F538033E508B4FB0F1201A2
:1000C300547F4D12017112016A7F55801FE5086448
:1000D300FD701F1201547F431201717F4112016CA5
:1000E3007F431201717F451201717F4C120171022E
:1000F3000005E50864FE60030200051201547F4118
:100103001201717F431201717F4B120171020005CD
:10013B00C2957F3812015B7F081201567F061201B0
:09014B005B7F0C12015B02000352
:0300000002019367
:0C019300787FE4F6D8FD75810802013B7E
:00000001FF
