:0F0229004B554E414C205649534F554C494100BF
:0801BB00C291D2927F017E0087
:1001C300E4FDFCC3ED9FEC9E5015E4FBFA0BBB0072
:0F01D300010ABA04F8BBFBF50DBD00010C80E476
:0101E20022FA
:1001F800D287C290D291308709C2921201BFD2929F
:0302080080F4225D
:0F020B00A9071201F88980C2901201BBC292228A
:0F021A00A9071201F88980D2901201BBC292226B
:0A0183008B178A1889198C1A8D1B3E
:10018D00E4F51CF51DC3E51D951BE51C951A501DC9
:10019D00AB17AA18A919851D82851C831200F9FFBA
:0D01AD0012021A051DE51D70DC051C80D82E
:0101BA002222
:10013F0078087C007D007BFF7A0279297E007F0F93
:10014F001200D3C2957F3812020B7F0C12020B7F65
:10015F000112020B7F0612020B7F8012020B7B0033
:10016F007A0079081201E3AC06AD077B007A0079BB
:04017F0008020183EE
:03000000020238C1
:0C023800787FE4F6D8FD75811D02013FBF
:10000300E709F608DFFA8046E709F208DFFA803EDF
:1000130088828C83E709F0A3DFFA8032E309F608CC
:10002300DFFA8078E309F208DFFA807088828C8334
:10003300E309F0A3DFFA806489828A83E0A3F608E8
:10004300DFFA805889828A83E0A3F208DFFA804CC2
:1000530080D280FA80C680D4806980F28033801099
:1000630080A680EA809A80A880DA80E280CA803302
:1000730089828A83ECFAE493A3C8C582C8CCC5837A
:10008300CCF0A3C8C582C8CCC583CCDFE9DEE7804A
:100093000D89828A83E493A3F608DFF9ECFAA9F0C9
:1000A300EDFB2289828A83ECFAE0A3C8C582C8CC1F
:1000B300C583CCF0A3C8C582C8CCC583CCDFEADE38
:1000C300E880DB89828A83E493A3F208DFF980CC9A
:1000D30088F0EF60010E4E60C388F0ED2402B40493
:1000E3000050B9F582EB2402B4040050AF2323453A
:0600F3008223900053730C
:1000F900BB010CE58229F582E5833AF583E02250BC
:1001090006E92582F8E622BBFE06E92582F8E22205
:0D011900E58229F582E5833AF583E493221F
:1001E300E4FFFE120126600C0FEF70010E09E970A7
:0501F300F20A80EF227A
:10012600BB010689828A83E0225002E722BBFE02D7
:09013600E32289828A83E493220A
:00000001FF
