:08000300C291D2927F017E0040
:10000B00E4FDFCC3ED9FEC9E5015E4FBFA0BBB002B
:0F001B00010ABA04F8BBFBF50DBD00010C80E42F
:01002A0022B3
:10005200D287C290D291308709C292120007D292FF
:0300620080F42205
:0F006500A9071200528980C290120003C2922292
:0F007400A9071200528980D290120003C2922273
:10002B00C2957F381200657F0C1200657F011200AC
:10003B00657F801200657F611200747F0612006578
:07004B007F3912007480FEF2
:0300000002008378
:0C008300787FE4F6D8FD75810702002BA1
:00000001FF
